:1000000071C0000086C0000084C0000082C00000F3
:1000100080C000007EC000007CC000007AC00000EC
:1000200078C0000076C0000074C0000072C00000FC
:1000300070C000006EC000006CC000006AC000000C
:1000400068C0000066C0000064C0000062C000001C
:1000500060C000005EC000005CC000005AC000002C
:1000600058C0000056C0000054C0000052C000003C
:1000700050C000004EC000004CC000004AC000004C
:1000800048C0000046C0000044C0000042C000005C
:1000900040C000003EC000003CC000003AC000006C
:1000A00038C0000036C0000034C0000032C000007C
:1000B00030C000002EC000002CC000002AC000008C
:1000C00028C0000026C0000024C0000022C000009C
:1000D00020C000001EC000001CC000001AC00000AC
:1000E00018C0000011241FBECFEFD1E2DEBFCDBF8C
:1000F00000E00CBF12E0A0E0B2E0E2EAF1E000E0D4
:100100000BBF02C007900D92A031B107D9F727D0DD
:1001100046C076CF1092C50089E18093C40088E183
:100120008093C10086E08093C20008959091C00042
:1001300095FFFCCF8093C60008958091C00087FF93
:10014000FCCF8091C6000895CF93DF93EC01899195
:10015000882311F0EBDFFBCFDF91CF910895279A31
:100160008FE090E02F9A2FEF31EE44E021503040A5
:100170004040E1F700C000002F982FEF31EE44E03F
:10018000215030404040E1F700C00000019751F796
:10019000C1DF80E092E0D8DFD0DFC8DFFDCFF89488
:0201A000FFCF8F
:1001A20048656C6C6F2C20576F726C640A0D0000EE
:00000001FF
