:1000000045C0000058C0000056C0000054C00000A9
:1000100052C0000050C000004EC000004CC00000A4
:100020004AC0000048C0000046C0000044C00000B4
:1000300042C0000040C000003EC000003CC00000C4
:100040003AC0000038C0000036C0000034C00000D4
:1000500032C0000030C000002EC000002CC00000E4
:100060002AC0000028C0000026C0000024C00000F4
:1000700022C0000020C000001EC000001CC0000004
:100080001AC0000018C0000016C0000011241FBED6
:10009000CFEFD0E4DEBFCDBF11E0A0E0B1E0E6E4F9
:1000A000F1E000E00BBF02C007900D92A031B10754
:1000B000D9F727D046C0A4CF1092C50089E180931C
:1000C000C40088E18093C10086E08093C200089557
:1000D0009091C00095FFFCCF8093C6000895809159
:1000E000C00087FFFCCF8091C6000895CF93DF93B7
:1000F000EC018991882311F0EBDFFBCFDF91CF91E9
:100100000895279A8FE090E02F9A2FEF31EE44E088
:10011000215030404040E1F700C000002F982FEF01
:1001200031EE44E0215030404040E1F700C0000093
:10013000019751F7C1DF80E091E0D8DFD0DFC8DF61
:06014000FDCFF894FFCF93
:1001460048656C6C6F2C20576F726C640A0D00004A
:00000001FF
