:100000000C9472000C947E000C947E000C947E0084
:100010000C947E000C947E000C947E000C947E0068
:100020000C947E000C947E000C947E000C947E0058
:100030000C947E000C947E000C947E000C947E0048
:100040000C947E000C947E000C947E000C947E0038
:100050000C947E000C947E000C947E000C947E0028
:100060000C947E000C947E000C947E000C947E0018
:100070000C947E000C947E000C947E000C947E0008
:100080000C947E000C947E000C947E000C947E00F8
:100090000C947E000C947E000C947E000C947E00E8
:1000A0000C947E000C947E000C947E000C947E00D8
:1000B0000C947E000C947E000C947E000C947E00C8
:1000C0000C947E000C947E000C947E000C947E00B8
:1000D0000C947E000C947E000C947E000C947E00A8
:1000E0000C947E0011241FBECFEFD1E2DEBFCDBF46
:1000F00000E00CBF0E9480000C9403010C940000EF
:1001000040E060E080E80E94CD000E94910084E61B
:1001100090E00E94C9000E9491008AEA0E94E900D2
:10012000FCCF2898A5980895289AA59A089587FD48
:1001300007C0803438F491E0803128F490E003C0A7
:1001400093E001C092E08CB58C7F982B9CBD089504
:100150009CB5937F9CBD882319F08CB588608CBDBD
:10016000662319F08CB584608CBD0895BC0180E8CD
:100170009EE30E94EF006F3F710509F030F4643098
:10018000710528F464E070E002C06FEF70E0862F24
:1001900008950E94B6000C949700CF93C82F862F25
:1001A000E4E6F0E090819B7F90839D9A94B1976004
:1001B00094B9289A23989CB59F7D9CBD90E59CBDE1
:1001C000642F0E94A8008C2F0E949700CF910C945E
:1001D00094008EBD0DB407FEFDCF8EB50895AA1B09
:1001E000BB1B51E107C0AA1FBB1FA617B70710F022
:1001F000A61BB70B881F991F5A95A9F78095909554
:0A020000BC01CD010895F894FFCF72
:00000001FF
