:1000000033C000004CC000004AC0000048C00000DF
:1000100046C0000044C0000042C0000040C00000D4
:100020003EC000003CC000003AC0000038C00000E4
:1000300036C0000034C0000032C0000030C00000F4
:100040002EC000002CC000002AC0000028C0000004
:1000500026C0000024C0000022C0000020C0000014
:100060001EC000001CC0000011241FBECFEFD8E04E
:10007000DEBFCDBF11E0A0E0B1E0E2E9F3E002C0F5
:1000800005900D92A432B107D9F721E0A4E2B1E0C6
:1000900001C01D92AA32B207E1F722D078C1B0CFD9
:1000A0002F933F93AF93BF93EF93FF93DB01FA013D
:1000B000282F22952F702A3010F0295C01C0205D76
:1000C0002C93382F3F703A3010F0395C01C0305D0E
:1000D0003083FF91EF91BF91AF913F912F910895A0
:1000E000CF93DF9300D0CDB7DEB760E875E280E054
:1000F00090E077D08FE091E01AD110E08091240158
:10010000909125019AD0AE014F5F5F4FBE016E5FA7
:100110007F4FC6DF60912601709127018A8190E0B0
:10012000CAD06091260170912701898190E0C3D0E7
:100130001F5F6091260170912701183058F08DE003
:1001400090E0B9D060912601709127018AE090E09B
:10015000B2D0D3CF80E290E0AED0D0CF9B01AC0143
:1001600084E0220F331F441F551F8A95D1F760E0AA
:1001700074E284EF90E03FD0215031093093C50004
:100180002093C40088E18093C10086E08093C20080
:1001900008959091C00095FFFCCF8093C60008950C
:1001A000CF93C82F8A3011F48DE0F3DF8C2FF1DF6D
:1001B00080E090E0CF910895CF938091C00087FFB9
:1001C000FCCFC091C60080910E01882311F08C2FC6
:1001D000E0DF8C2FCF910895EFDF082E000C990BF4
:1001E0000895BCDFE4E2F1E080E091E09383828354
:1001F000918380830895A1E21A2EAA1BBB1BFD01E7
:100200000DC0AA1FBB1FEE1FFF1FA217B307E407F5
:10021000F50720F0A21BB30BE40BF50B661F771F4D
:10022000881F991F1A9469F760957095809590952D
:100230009B01AC01BD01CF010895CF93DF93EC0189
:100240002B8120FF33C026FF0AC02F7B2B838E819A
:100250009F8101969F838E838A8190E029C022FF2F
:100260000FC0E881F9818081082E000C990B00975E
:1002700019F420622B831AC03196F983E8830EC0EB
:10028000EA85FB85099597FF09C02B81019611F03E
:1002900080E201C080E1822B8B8308C02E813F81E8
:1002A0002F5F3F4F3F832E83992702C08FEF9FEF31
:1002B000DF91CF9108950F931F93CF93DF93FB01AD
:1002C000238121FD03C08FEF9FEF2CC022FF16C0BA
:1002D00046815781248135814217530744F4A08118
:1002E000B1819D012F5F3F4F318320838C93268105
:1002F00037812F5F3F4F3783268314C08B01EC017A
:10030000FB010084F185E02D0995892BE1F6D801E8
:1003100016968D919C911797019617969C938E93A4
:100320001697CE01DF91CF911F910F9108950F93F2
:100330001F93CF93DF93E0912601F0912701238152
:1003400021FF1BC08C01D0E0C0E0F80181918F013A
:100350006091260170912701DB011896ED91FC91C7
:100360001997882331F00995892B79F3DFEFCFEFC7
:10037000ECCF8AE00995892B19F08FEF9FEF02C02F
:100380008D2F9C2FDF91CF911F910F910895F8949D
:02039000FFCF9D
:100392000000000300000000D000EC000000010D8E
:1003A2000A48657820446973706C617920526561EE
:0403B20064790D005D
:00000001FF
