:020000020000FC
:1000000000C00FE90DBFB99AC19AB898C09A02E82A
:1000100006BF02E00FBD02E003BF18D001D0FDCF44
:100020000F931F932F93182F2AE0C19826D010FD0D
:10003000C19A10FFC198169520D02A952230B9F7A1
:10004000C19A1BD02F911F910F9108950F932F9359
:100050003F93B099FECF1BD0B099FBCF28E0332758
:100060000CD08894B099089437952A95C9F705D093
:10007000832F3F912F910F9108950F93002702BF77
:1000800004E008BF08B702FFFDCF0F9108950F935A
:0E009000002702BF02B70134E8F30F91089574
:00000001FF
