:100000000C9446000C9465000C9465000C946500FB
:100010000C9465000C9465000C9465000C946500CC
:100020000C9465000C9465000C9465000C946500BC
:100030000C9465000C9465000C9465000C946500AC
:100040000C9465000C9465000C9465000C9465009C
:100050000C9465000C9465000C9465000C9465008C
:100060000C9465000C9465000C9465000C9465007C
:100070000C9465000C9465000C9465000C9465006C
:100080000C9465000C9465000C94650011241FBE4F
:10009000CFEFD0E4DEBFCDBF11E0A0E0B1E0ECEEE9
:1000A000F3E000E00BBF02C007900D92A232B1074F
:1000B000D9F721E0A2E2B1E001C01D92A832B20757
:1000C000E1F70E9467000C94F4010C940000279A59
:1000D0008FE090E02F9A2FEF31EE44E02150304036
:1000E0004040E1F700C000002F982FEF31EE44E0D0
:1000F000215030404040E1F700C00000019751F727
:1001000060E875E280E090E00E941D018FE091E0E0
:100110000E94C40180912201909123010E944A0112
:10012000609124017091250190E00E948801F2CF36
:1001300080930E0108959B01AC0184E0220F331FD0
:10014000441F551F8A95D1F760E074E284EF90E078
:100150000E942801215031093093C5002093C4002A
:1001600088E18093C10086E08093C2000895909159
:10017000C00095FFFCCF8093C6000895CF93C82F91
:100180008A3019F48DE00E94B7008C2F0E94B700CE
:1001900080E090E0CF910895CF938091C00087FFD9
:1001A000FCCFC091C60080910E01882319F08C2FDE
:1001B0000E94B7008C2FCF9108950E94CC00082E8A
:1001C000000C990B08958091C000881F8827881F14
:1001D0000895CF93DF93EC018991882319F00E9451
:1001E000B700FACFDF91CF9108950F931F93CF936C
:1001F000DF93EC018C01060F111DC017D10721F010
:100200000E94CC008993F9CFDF91CF911F910F917C
:1002100008950F931F93CF93DF93EC018C01060F8A
:10022000111DC017D10721F089910E94B700F9CFA5
:10023000DF91CF911F910F9108950E949B00E2E200
:10024000F1E080E091E0938382839183808308953D
:10025000A1E21A2EAA1BBB1BFD010DC0AA1FBB1FCA
:10026000EE1FFF1FA217B307E407F50720F0A21B3C
:10027000B30BE40BF50B661F771F881F991F1A94A9
:1002800069F760957095809590959B01AC01BD01D3
:10029000CF010895CF93DF93EC012B8120FF33C072
:1002A00026FF0AC02F7B2B838E819F8101969F831F
:1002B0008E838A8190E029C022FF0FC0E881F981F6
:1002C0008081082E000C990B009719F420622B8373
:1002D0001AC03196F983E8830EC0EA85FB8509953B
:1002E00097FF09C02B81019611F080E201C080E1E7
:1002F000822B8B8308C02E813F812F5F3F4F3F832E
:100300002E83992702C08FEF9FEFDF91CF91089541
:100310000F931F93CF93DF93FB01238121FD03C034
:100320008FEF9FEF2CC022FF16C04681578124819A
:1003300035814217530744F4A081B1819D012F5F9D
:100340003F4F318320838C93268137812F5F3F4F2E
:100350003783268314C08B01EC01FB010084F185F7
:10036000E02D0995892BE1F6D80116968D919C9187
:100370001797019617969C938E931697CE01DF914F
:10038000CF911F910F9108950F931F93CF93DF93F8
:10039000E0912401F0912501238121FF1BC08C01F4
:1003A000D0E0C0E0F80181918F016091240170914B
:1003B0002501DB011896ED91FC911997882331F006
:1003C0000995892B79F3DFEFCFEFECCF8AE0099520
:1003D000892B19F08FEF9FEF02C08D2F9C2FDF919B
:0C03E000CF911F910F910895F894FFCF6A
:1003EC000000000300000000BE00DD0000000165FD
:1003FC0063686F696E67207278206F6E2074780D59
:02040C000000EE
:00000001FF
