:100000000C9446000C9458000C9458000C94580022
:100010000C9458000C9458000C9458000C94580000
:100020000C9458000C9458000C9458000C945800F0
:100030000C9458000C9458000C9458000C945800E0
:100040000C9458000C9458000C9458000C945800D0
:100050000C9458000C9458000C9458000C945800C0
:100060000C9458000C9458000C9458000C945800B0
:100070000C9458000C9458000C9458000C945800A0
:100080000C9458000C9458000C94580011241FBE76
:10009000CFEFD0E4DEBFCDBF21E0A0E0B1E001C0F2
:1000A0001D92A130B207E1F70E945A000C94A30000
:1000B0000C940000209A289A84EF91E00E948E0010
:1000C000289884EF91E00E948E00F5CFE1E8F0E0FF
:1000D000108210928500109284001092800081E0BE
:1000E0008083809300010895109281001092000196
:1000F0000895809184002091850090E0922B0895CE
:10010000CF93DF93EC010E9466000E9479008C1768
:100110009D07D8F3DF91CF910C9474000F931F9338
:10012000CF93DF938C01C0E0D0E0C017D10731F04E
:100130008CE59EE30E9480002196F7CFDF91CF915E
:0A0140001F910F910895F894FFCF6E
:00000001FF
