:1000000039C03EC03DC03CC03BC03AC039C038C01A
:1000100037C036C035C034C033C032C031C030C044
:100020002FC02EC02DC00D0A0043757272656E740C
:10003000204F534343414C3A20307800456570725D
:100040006F6D204F534343414C3A203078004F535B
:100050004343414C2043616C6962726174696F6E05
:100060000D0A0030313233343536373839414243A6
:100070004445460011241FBECFEDCDBF22D0BDC0E8
:10008000BFCFCF93DF93FC018491EF0121968823AA
:1000900019F045D0FE01F8CFDF91CF910895CF93AD
:1000A000C82FE82FE295EF70F0E0ED59FF4F8491F3
:1000B00036D0CF70EC2FF0E0ED59FF4F8491CF9107
:1000C0002EC080E090E092D0C82F8F3F11F081BF0A
:1000D00002C08CE581BF2FEF89E698E12150804076
:1000E0009040E1F700C0000016D08EE490E0C9DF38
:1000F0008CE390E0C6DF8C2FD2DF86E290E0C1DF98
:1001000089E290E0BEDF81B7CADF86E290E0B9DF26
:1001100024D005D0FDCF899A919AC09A08959198DC
:10012000E1E8F6E03197F1F700C0000098E080FFC9
:1001300002C0919A01C09198E1E8F6E03197F1F799
:1001400000C000008695915091F7919A81E896E061
:100150000197F1F700C0000008958099FECF83EB6E
:1001600099E00197F1F700C0000080B38170E3E7E8
:10017000F6E03197F1F700C0000080998260E3E774
:10018000F6E03197F1F700C0000080998460E3E762
:10019000F6E03197F1F700C0000080998860E3E74E
:1001A000F6E03197F1F700C0000080998061E3E745
:1001B000F6E03197F1F700C0000080998062E3E734
:1001C000F6E03197F1F700C0000080998064E3E722
:1001D000F6E03197F1F700C0000080998068E1E80F
:1001E000F6E03197F1F700C000000895E199FECFE5
:0E01F0008EBBE09A99278DB30895F894FFCF47
:00000001FF
