:1000000035C03AC039C038C037C036C035C034C03A
:1000100033C032C031C030C02FC02EC02DC00D0A39
:100020000043757272656E74204F534343414C3ADE
:1000300020307800456570726F6D204F5343434107
:100040004C3A203078004F534343414C2043616C7D
:100050006962726174696F6E0D0A00303132333437
:1000600035363738394142434445460011241FBED6
:10007000CFEDCDBF22D0C0C0C3CFCF93DF93FC0163
:100080008491EF012196882319F045D0FE01F8CF25
:10009000DF91CF910895CF93C82FE82FE295EF70AD
:1000A000F0E0E55AFF4F849136D0CF70EC2FF0E0AE
:1000B000E55AFF4F8491CF912EC080E090E094D01C
:1000C000C82F8F3F11F081BF02C08CE581BF2FEF99
:1000D00089E698E1215080409040E1F700C000009F
:1000E00016D086E490E0C9DF84E390E0C6DF8C2F71
:1000F000D2DF8EE190E0C1DF81E290E0BEDF81B728
:10010000CADF8EE190E0B9DF24D005D0FDCFB89AE8
:10011000C09AC29A0895C098E1E8F6E03197F1F7E5
:1001200000C0000098E080FF02C0C09A01C0C098E3
:10013000E1E8F6E03197F1F700C0000086959150B4
:1001400091F7C09A81E896E00197F1F700C00000AE
:100150000895B299FECF83EB99E00197F1F700C0C3
:10016000000086B382FB882780F9E3E7F6E0319749
:10017000F1F700C00000B2998260E3E7F6E0319742
:10018000F1F700C00000B2998460E3E7F6E0319730
:10019000F1F700C00000B2998860E3E7F6E031971C
:1001A000F1F700C00000B2998061E3E7F6E0319713
:1001B000F1F700C00000B2998062E3E7F6E0319702
:1001C000F1F700C00000B2998064E3E7F6E03197F0
:1001D000F1F700C00000B2998068E1E8F6E03197DD
:1001E000F1F700C000000895E199FECF1FBA8EBB61
:0C01F000E09A99278DB30895F894FFCF92
:00000001FF
