:1000000030C035C034C033C032C031C030C02FC062
:100010002EC02DC00D0A0043757272656E74204F9C
:10002000534343414C3A20307800456570726F6D00
:10003000204F534343414C3A203078004F534343C1
:10004000414C2043616C6962726174696F6E0D0A84
:100050000030313233343536373839414243444544
:10006000460011241FBECFE9CDBF22D0B0C0C8CFFB
:10007000CF93DF93FC018491EF012196882319F03F
:1000800045D0FE01F8CFDF91CF910895CF93C82FCF
:10009000E82FE295EF70F0E0EF5AFF4F849136D0F1
:1000A000CF70EC2FF0E0EF5AFF4F8491CF912EC02C
:1000B00080E090E085D0C82F8F3F11F081BF02C053
:1000C0008CE581BF2FEF8BE49DE121508040904073
:1000D000E1F700C0000016D08CE390E0C9DF8AE2AF
:1000E00090E0C6DF8C2FD2DF84E190E0C1DF87E1B2
:1000F00090E0BEDF81B7CADF84E190E0B9DF1ED0B7
:1001000005D0FDCFB89AC09AC29A0895C098EFEC76
:10011000F7E03197F1F798E080FF02C0C09A01C084
:10012000C098EFECF7E03197F1F786959150A1F781
:10013000C09A8FEC97E00197F1F70895B299FECF3E
:1001400084EA9BE00197F1F700C0000086B382FBD0
:10015000882780F9EEEBF7E03197F1F70000B299CC
:100160008260EEEBF7E03197F1F70000B29984601E
:10017000EEEBF7E03197F1F70000B2998860EEEB13
:10018000F7E03197F1F70000B2998061EEEBF7E00C
:100190003197F1F70000B2998062EEEBF7E031970A
:1001A000F1F70000B2998064EEEBF7E03197F1F7D8
:1001B0000000B2998068EFECF7E03197F1F708950D
:1001C000E199FECF8EBBE09A99278DB30895F894FC
:0201D000FFCF5F
:00000001FF
