:1000000045C0000058C0000056C0000054C00000A9
:1000100052C0000050C000004EC000004CC00000A4
:100020004AC0000048C0000046C0000044C00000B4
:1000300042C0000040C000003EC000003CC00000C4
:100040003AC0000038C0000036C0000034C00000D4
:1000500032C0000030C000002EC000002CC00000E4
:100060002AC0000028C0000026C0000024C00000F4
:1000700022C0000020C000001EC000001CC0000004
:100080001AC0000018C0000016C0000011241FBED6
:10009000CFEFD0E4DEBFCDBF11E0A0E0B1E0E2E9F8
:1000A000F1E000E00BBF02C007900D92A631B1074E
:1000B000D9F74CD06CC0A4CF2F933F93AF93BF938D
:1000C000EF93FF93DB01FA01282F22952F702A303E
:1000D00010F0295C01C0205D2C93382F3F703A301E
:1000E00010F0395C01C0305D3083FF91EF91BF911A
:1000F000AF913F912F9108951092C5008CE08093AD
:10010000C400E0ECF0E080818D7F808388E1809303
:10011000C10086E08093C20008959091C00095FFD1
:10012000FCCF8093C60008958091C00087FFFCCF6C
:100130008091C6000895CF93DF93EC0189918823C5
:1001400011F0EBDFFBCFDF91CF910895CF93DF93D9
:1001500000D0CDB7DEB7D0DF80E091E0ECDF10E07B
:10016000E3DFAE014F5F5F4FBE016E5F7F4FA4DFE5
:100170008A81D3DF8981D1DF1F5F183028F08DE0BD
:10018000CCDF8AE0CADFEBCF80E2C7DFE9CFF894AB
:02019000FFCF9F
:100192000D0A48657820446973706C617920526554
:0601A2006164790D0A0002
:00000001FF
